:100000000C9486000C948D020C948D020C948D023D
:100010000C948D020C948D020C948D020C948D0224
:100020000C946F020C948D020C948D020C948D0232
:100030000C948D020C948D020C948D020C948D0204
:100040000C948D020C948D020C948D020C948D02F4
:100050000C948D020C948D020C948D020C948D02E4
:100060000C9479020C948D020C948D020C948D02E8
:100070000C948D020C948D020C9474020C948D02DD
:100080000C948D020C948D020C948D020C948302BE
:100090000C948D020C948D020C948D020C948D02A4
:1000A0000C948D020C948D020C948D020C948D0294
:1000B0000C948D020C948E010C947E020C948D0293
:1000C0000C948D020C948D020C948D020C948D0274
:1000D0000C948D020C948D020C948D020C948D0264
:1000E0000C948D020C948D020C948D020C948D0254
:1000F0000C948D02400040100005324010401C80DE
:10010000401C401E000542401E402080809101108E
:100110008F7C8060806898ED94BF809301101124DB
:100120001FBECFEFCDBFDFE7DEBFE4EFF0E041E081
:1001300019C0B791A79137912791079107FD0EC07C
:1001400097918791EF01F92FE82F0BBF07900D9240
:10015000A217B307D9F7FE011BBE04C01D92A21758
:10016000B307E1F7EC30F40721F70E9424020C9466
:060170004C02F894FFCFE1
:06017600746573740D00B6
:10017C000F931F93CF93DF9340E054E0FA01148266
:10018C0020E234E061E0F901648380E494E0FC0156
:10019C001482C0E6D4E01C82A0E8B4E014961C9251
:1001AC00149700EA14E0F8011482FA011082F901A4
:1001BC006083FC01108218821C92F8011082FA01F3
:1001CC00108A118A128A138A148A158A168A178A37
:1001DC00F901108A118A128A138A148A158A168ACE
:1001EC00178AFC01108A118A128A138A148A158ABA
:1001FC00168A178A188A198A1A8A1B8A1C8A1D8AD7
:10020C001E8A1F8A50961C92509751961C92519799
:10021C0052961C92529753961C92539754961C923A
:10022C00549755961C92559756961C9256975796DE
:10023C001C92F801108A118A128A138A148A158A60
:10024C00168A178AE0EEF5E011861182108214826C
:10025C00168217821086158212821382128684E906
:10026C0092E080931A4090931B4085E992E0809332
:10027C00184090931940DF91CF911F910F910895E1
:10028C0040E068ED80E690E00E94880240E068ED76
:10029C0081E690E00E94880240E068ED88E790E0FB
:1002AC000E9488024CE068ED88E690E00E9488028B
:1002BC0040E068ED89E690E00E94880240E068ED3D
:1002CC0080E790E00E94880240E068ED8CE790E0C7
:1002DC000E94880240E068ED82E690E00E9488026D
:1002EC0040E068ED83E690E00E94880240E068ED13
:1002FC0084E690E00E94880240E068ED80E890E09F
:10030C000E948802E0E6F0E0858181FFFDCF089530
:10031C001F920F920FB60F9211240BB60F922F93C0
:10032C003F934F935F936F937F938F939F93AF9371
:10033C00BF93EF93FF93399B05C0E0911A40F09166
:10034C001B400995389B05C0E0911840F09119406D
:10035C0009958FEF87B9FF91EF91BF91AF919F9165
:10036C008F917F916F915F914F913F912F910F9052
:0C037C000BBE0F900FBE0F901F90189545
:100388000F931F93CF93DF938C010F5F1F4FFC01D7
:1003980080816115710519F48FEF9FEF1EC0FB0175
:1003A80024853585232BC1F3EB01EC85FD85BE0142
:1003B800882339F00995892B79F7F80181918F0104
:1003C800F4CF8AE0099521E030E0892B11F420E090
:1003D80030E088279927821B930BDF91CF911F91DB
:0403E8000F910895D4
:1003EC00E0E6F8E08BE890E080879187158280EC5E
:1003FC00868383E08783138614861686158681E9A7
:10040C0092E0809314409093154082E992E080939F
:10041C0012409093134083E992E0809310409093A4
:10042C0011401092164010921740E0911C40F09130
:0C043C001D4080E090E4808391830895CF
:100448000E94570286E791E80E9460022FEF84E33A
:100458009CE0215080409040E1F700C00000F2CFBE
:10046800CF93C82F0E9469028823E1F3C0936208E2
:0804780080E090E0CF910895AF
:1004800040E068ED80E191E00E948802E0E1F1E067
:080490001282138280E008953E
:10049800EC010E9497020E949602CE010E949802E7
:0604A800CE010E948F024C
:1004AE000E9446010E94BE000E94F6010E94400278
:0204BE0008959F
:1004C000E0911C40F0911D40608171810E94C40147
:0204D00008958D
:0C04D2008091640885FB882780F908955C
:0A04DE008F938FEF83B98F9118956B
:0A04E8008F938FEF8BB98F91189559
:0A04F2008F938FEF8FB98F9118954B
:0A04FC008F938FEF83BB8F9118954B
:0A0506008F938FEF87BB8F9118953C
:0A0510001BBEFC0164BF4083089588
:04051A000C9400003D
:04051E000E94B9007E
:0205220008953A
:02052400089538
:02052600089536
:02052800089534
:02052A00089532
:02052C00089530
:02052E0008952E
:0205300008952C
:100532000300000000000000000000003402000080
:020542001E4059
:02000004008278
:090000000000000000C00800002F
:00000001FF
